:020000040000FA
:100000000054040001000000B21F0000341F000073
:100010003A1F0000401F0000461F00004C1F000058
:10002000B21F0000B21F0000B21F0000B875000030
:10003000B21F0000B8740000B21F0000427600003A
:10004000B21F00003E750000B21F0000B21F00008A
:10005000B21F0000D87E0000B21F0000B21F0000D7
:10006000B21F0000B21F0000B21F0000B21F00004C
:10007000B21F0000B21F0000B21F0000B21F00003C
:10008000B21F0000B21F0000B21F0000B21F00002C
:10009000B21F0000B21F0000B21F0000B21F00001C
:1000A000887F0000B21F0000B21F0000B21F0000D6
:1000B000B21F0000B21F0000B21F0000B21F0000FC
:1000C000B21F0000B21F0000B21F0000B21F0000EC
:1000D000B21F0000B21F0000B21F0000B21F0000DC
:1000E000B21F0000B21F0000B21F0000B21F0000CC
:1000F000B21F0000B21F0000B21F0000B21F0000BC
:10010000B21F0000B21F0000B21F0000B21F0000AB
:10011000B21F0000B21F0000B21F00009E75000059
:10012000B21F0000B21F0000B21F0000CA7600001C
:10013000D2760000B21F0000847500006A750000CE
:10014000B21F0000B21F0000B21F0000B21F00006B
:10015000B21F0000B21F0000B21F0000B21F00005B
:10016000B21F0000B21F0000B21F0000B21F00004B
:10017000B21F0000B21F0000B21F0000B21F00003B
:10018000B21F0000B21F0000B21F0000B21F00002B
:10019000B21F0000B21F0000B21F0000B21F00001B
:1001A000B21F0000B21F0000B21F0000B21F00000B
:1001B000B21F0000B21F0000B21F0000B21F0000FB
:1001C000B21F0000B21F0000B21F0000B21F0000EB
:1001D000B21F0000B21F0000B21F0000B21F0000DB
:1001E000B21F0000B21F0000B21F0000B21F0000CB
:1001F000B21F0000B21F0000B21F0000B21F0000BB
:10020000FFFFFF00FFFFFF00B21F0000521F0000B2
:10021000581F00005E1F0000641F00006A1F0000DE
:10022000B21F0000B21F0000B21F0000B87500002E
:10023000B21F0000B8740000B21F00004276000038
:10024000B21F00003E750000B21F0000B21F000088
:10025000B21F0000D87E0000B21F0000B21F0000D5
:10026000B21F0000B21F0000B21F0000B21F00004A
:10027000B21F0000B21F0000B21F0000B21F00003A
:10028000B21F0000B21F0000B21F0000B21F00002A
:10029000B21F0000B21F0000B21F0000B21F00001A
:1002A000887F0000B21F0000B21F0000B21F0000D4
:1002B000B21F0000B21F0000B21F0000B21F0000FA
:1002C000B21F0000B21F0000B21F0000B21F0000EA
:1002D000B21F0000B21F0000B21F0000B21F0000DA
:1002E000B21F0000B21F0000B21F0000B21F0000CA
:1002F000B21F0000B21F0000B21F0000B21F0000BA
:10030000B21F0000B21F0000B21F0000B21F0000A9
:10031000B21F0000B21F0000B21F00009E75000057
:10032000B21F0000B21F0000B21F0000CA7600001A
:10033000D2760000B21F0000847500006A750000CC
:10034000B21F0000B21F0000B21F0000B21F000069
:10035000B21F0000B21F0000B21F0000B21F000059
:10036000B21F0000B21F0000B21F0000B21F000049
:10037000B21F0000B21F0000B21F0000B21F000039
:10038000B21F0000B21F0000B21F0000B21F000029
:10039000B21F0000B21F0000B21F0000B21F000019
:1003A000B21F0000B21F0000B21F0000B21F000009
:1003B000B21F0000B21F0000B21F0000B21F0000F9
:1003C000B21F0000B21F0000B21F0000B21F0000E9
:1003D000B21F0000B21F0000B21F0000B21F0000D9
:1003E000B21F0000B21F0000B21F0000B21F0000C9
:1003F000B21F0000B21F0000B21F0000B21F0000B9
:100400000F9C2300005F2400000188000000000012
:100410000C000700E0DF21000100200011000700B0
:10042000000020000000E000020032000000020096
:100430000000000000480200000000000040DA0058
:100440000000FE004440A900E00120000000E000A0
:100450000300320000002000A00188004440A800F2
:100460000000060091018800800078000000EB0089
:1004700015003700E280400032A0B4009101BA00BC
:10048000E280400032A0B4009102BA00E280400055
:1004900032A0B4000002EB00472BDE00F507B200EB
:1004A000602CE10004003A000059EB008301E900F0
:1004B000FDFF3E00040037006128E100010032002A
:1004C0000082EB00040007001101BA000200E00006
:1004D000E8FF3A00000006003159BA008301E90044
:1004E0000C0032002159BA008301E90008003200F3
:1004F0000400E00003003A00E280400032A0B400B3
:10050000F5FF370011D9BA008301E900FAFF3A007C
:100510008100E800E180400032A0B4000000060045
:1005200002027800809FBE00110009008200D800FE
:10053000000178004F00BE0002A2B9008480500084
:10054000110098000208780000000600839F6800F0
:100550000100E00002003D0060001000E080180093
:100560000300E00002003D0060011100E08119007D
:10057000520707004F00E00002003B00600010003F
:10058000E080180000000600F4FF2F001101370082
:10059000810378002A0107000001BE006000B80056
:1005A0000478A30013003A006220E10015003E0029
:1005B0000D0039008301D1000281D3008180D30076
:1005C0008301D1000281D3008180D3008301D10057
:1005D0000281D3008180D3000538B000C42ADD0039
:1005E000F300B2008381720007F0A70003F0A000BF
:1005F00000000600F3FF2700F2FF2F006110B90092
:10060000FBFF370003FF2700F7FF37001400FA0055
:10061000889FBE008A9FBE008C9FBE000004BE0063
:100620000205BE00680047000A90BE000890BE00A8
:10063000180107000070A7000BF0A1003043200054
:100640009E02900080825200B0FE2F000028E10040
:1006500011003D00B0FC2F000028E100150034001F
:100660001E0990008E0890007E0090000501B000E9
:100670000201D1008180D3000080D3008502E80010
:10068000FBFF3A000B00E0003D013B006000100062
:10069000E08018003A013700F0FF2F00F1FF27003B
:1006A0000B00E00036013B000100280000002000A4
:1006B000330137006000B800310137004F89DE0098
:1006C00082017800330137001400200068013700F0
:1006D0001400FA00889FBE008A9FBE008C9FBE0057
:1006E0000005BE000206BE00680047000C90BE0078
:1006F0000A90BE00E70007006400E1001A00320023
:1007000016003E006100E1001A0032006E04900005
:10071000FE0490000E0B90009E0B90006011B8003C
:100720009E0590000B38B100D50120008281710038
:10073000610164008703D1000683D3008984D3005C
:100740000884D3008502E900F8FF3A00F5010700AC
:100750000DF0A70001F0A00009013700F1FF27000C
:10076000F0FF2F000601370001F8270000002000ED
:10077000F7FF37006000B800F5FF37000002EB001C
:100780003B013700889FBE008A9FBE0001057800AC
:100790000100E0000400350008003C000000E0001B
:1007A000200032000500370060001000E0801800D3
:1007B00002003B0001F02C001A0037000004BE00CC
:1007C0006011B8006B0920000982CF0002003900D7
:1007D0000882CF000441B000694252000E0032008E
:1007E00008003B0082817100610164008904D1002E
:1007F0000884D3008B05E8000442E800F9FF3A00C2
:10080000050037000804440089844C008B05E9008A
:100810000442E900FBFF3A00C20107000AF0A7000A
:1008200001F0A0004F05BE004F04BE00000006000E
:1008300014002000670037008F1FD100DF01070080
:100840008F87E9000000E00000000600889FBE00DE
:100850008A9FBE008C1F7800010207001002200052
:1008600002003B00C0408800050237008A00620099
:100870006408E10002003A00C04088000D02370021
:100880006108E100FCFF32000800BE0003047800AC
:100890003904070001F0A100F707070008F0A600DF
:1008A000040037000001BE0091042400B0FD2000C8
:1008B0004303070009F0A70001F0A200F901370087
:1008C0000001BE005E0007000470A70003F0A10055
:1008D0006509B100160032000D0035006828E100FE
:1008E00006003500F0FF2F00F1FF27000300E000B5
:1008F00013003B000100280000000500000040003C
:10090000818048008502E900FCFF3A0008003700BA
:10091000F88F420002003C008000EB000000050060
:100920008100D1000080D3008502E800FCFF3A007E
:100930000300E00002003B0060001000E0801800AF
:10094000000006000400200022003700809FEB001A
:100950009A0107008F87E9000000E0000000060010
:1009600004002000D60137000001BE00340007005B
:100970000470A70003F0A10003F8A30013003A00DD
:100980006509B10010003200090035006928E10056
:1009900002003500010028000000050000004000B2
:1009A000818048008502E900FCFF3A000000060053
:1009B000F88F4200050035008100D1000080D3008F
:1009C0008502E800FCFF3A00000006008000EB0012
:1009D00000000500889FBE008A9FBE00841F78002B
:1009E0009F0107004F00780011003300F0FF2F0037
:1009F000838F6C0006003B00040565000A00A70019
:100A00000800370009F0A600100020000800370099
:100A1000820F5400838F5C00030039001000200017
:100A200001003E000000200009F0A7000000EA00DD
:100A30004F05BE004F04BE000000E00000000600AD
:100A4000C70ADE00F107B200F50FB200080032005D
:100A5000E1CF4200020032000170A0002400050036
:100A6000810F7000010032000408050044000500F9
:100A7000810F700002003A00140005008502E900B1
:100A80000000400081C04800FCFF3B000170A00056
:100A900024000500800078005002BE005003BE0014
:100AA0004439DE00F700B200F37F2000030161004B
:100AB000090032000218E10016003A0085017200B8
:100AC00083017300838173000008200015003A0041
:100AD000400020001300370085017200830173007D
:100AE0008381730005003A0004A8BE0006A8BE007A
:100AF000100020000B0037000201E9000402420050
:100B000085824A0006034B0087834B000748A300F9
:100B1000F9FF32000740A00004A8BE0006A8BE00EE
:100B2000200020008000980092009800000006003D
:100B3000680447000294BE000094BE00FC04470015
:100B40008694BE008494BE0009007800D1FF07009F
:100B500008007800CFFF070099007800814F7000EF
:100B60000B003B000800BE00A40107004F00B100CD
:100B700003003700F3FF2700F2FF2F006110B900D8
:100B80004F06BE004F05BE004F04BE000080FA00B5
:100B900000000600889FBE00830478000300E00088
:100BA0002C00350003003C0000827000040271003C
:100BB0002600320036432000C50020008383CF008A
:100BC0000A0039000541B1008283CF0007003900D7
:100BD0000541B1008183CF00040039000541B10017
:100BE0008083CF00010039000541B10085C3530067
:100BF0006022B800120032000A003B0084827200BA
:100C0000610260008301D1000281D3008180D300A2
:100C10000080D3000603E8008743E800F7FF3A00AE
:100C200007003700000040008180480002014900B1
:100C3000838149000603E9008743E900F9FF3A0090
:100C40007C01070009F0A70003F0A0004F04BE00DC
:100C50000000060060001000E0801800600119002C
:100C6000E0811900D3FF3B00033E2C00F7FF370063
:100C70000800FA00889FBE008A9FBE008C9FBE00BD
:100C8000040678000004BE000205BE0095010700BE
:100C90006420E1009F003E009B0032006120E100E3
:100CA0009600320003F0A100171B240036582C00D8
:100CB00005A0210004002000DFFE07000800BE00A0
:100CC0000A01BE000700350097012400B61F22006C
:100CD0004544250084D12200940107000004BE0091
:100CE0000205BE008006EB000C00A700CF1EDE0050
:100CF00003F0A1000BF0A10047FD230006F325003F
:100D000095DC260034882C00974607006022B80046
:100D10000003EB0007FE23000C00A60007FF2300E2
:100D2000C342070039FE07000000A7000D00A20023
:100D300062FE07000C00E00004003A0007FE2300FA
:100D4000060020006022B8005741070003F0A2000F
:100D5000009FBE000297BE009700240006002200FC
:100D60006022B800804607000802BE000A03BE00E9
:100D7000AF420700809FBE00829FBE003E00BE00C3
:100D80002E01BE00F7F4230046542B00152D24003D
:100D9000A4462800744607004F03BE004F02BE0061
:100DA000A34207000004BE000205BE0003F0A1003C
:100DB00067E42300E6092A00F5672600D4BC230077
:100DC0009DFE07000800BE000A01BE004800350075
:100DD0000002BE000203BE0063460700009FBE0083
:100DE0000297BE0087CE2300F60F28003599260013
:100DF00054F92D005C460700A7D62B0006422E00B2
:100E000085C02D00C4992400894207003E02BE001F
:100E10002E03BE005446070067DE2300C6232100D0
:100E2000A586260004432D00814207003E02BE0035
:100E30002E03BE004C460700A7E52B0056642E008B
:100E4000D5B52400B40A2C00794207003E02BE004A
:100E50002E03BE004446070077EC230036DE210057
:100E600045522A0034062F00714207003E02BE00A0
:100E70002E03BE003C460700A7F22B00061A2000F6
:100E800015A02100A4E12300694207003E02BE0034
:100E90002E03BE003446070017F823001611210068
:100EA00015112100040B2100614207003E02BE0023
:100EB0002E03BE002C46070057FC2B00565525007C
:100EC0005555250054552500594207003E02BE00E5
:100ED0002E03BE00244607000802BE000A03BE001F
:100EE000214607000802BE000A03BE005042070068
:100EF0000D00A70003F0A20021FF37000C00A600A0
:100F000003FF23001EFF3700F3FF2700F2FF2F002F
:100F10006110B9000330A00014022000C440880012
:100F200017FF370081002000618055000B003D0055
:100F30000B00200061FE2F000100E1001D003400C5
:100F400082817100610164008904D1000884D300AA
:100F50000000E800FAFF3A00710020006100640020
:100F600003007000020060000900320061044400C8
:100F7000E0844C000988A500050032008B05E800DC
:100F80006808E10002003A008904D1000884D30017
:100F9000F20F20000258E10005003D00C75DDD00B2
:100FA000F907B2008980750008007800000006008B
:100FB0000BF827008B00780000000500889FBE001A
:100FC0008A9FBE008C9FBE000404BE000605BE00C2
:100FD000809FBE00829FBE00C2000700040678000A
:100FE0000800BE000A01BE00BE00070084067800AB
:100FF0004F03BE004F02BE008D4F76007FB09700BA
:1010000013003300F0FF2F008B8F6B0006003B00B6
:101010000D0666000C00A7000A00370007F0A600C6
:10102000100020000A003700880F5200898F5A00F4
:101030008A0F5B008B8F5B000300390010002000DB
:1010400001003E000000200007F0A7000000EA00B9
:101050004F06BE004F05BE004F04BE000000060054
:101060000004BE0076FE07000003BE000405BE00BB
:101070000200BE0072FE0700844F750000000600EB
:101080000200BE006450E100050036006420E1006B
:10109000020036000968A30001003A000800BE0003
:1010A0000160A0004F0678004F05BE004F04BE004F
:1010B00000000600F0FF2F00F1FF2700F9FF3700C6
:1010C000889FBE008A9FBE008C1F78004F26DD00DF
:1010D000E3FF0700EAFF33006120E1004300320034
:1010E0006250E10041003E003E0039006420E10012
:1010F0003C003200058255000F003B000402E8006E
:1011000038003A00800F5300818F5B0035003400B7
:101110000800BE0003F0A10001F0A60003F0A0004B
:101120000CF0A7002F010700DEFF37000603430085
:1011300087834B000C4646000005530081855B0009
:10114000020033000A03BE000C00A0000402E90004
:10115000F6FF3B00850578000602430087824B00BE
:1011600004003A006000B80009F0A70001F0A000F8
:10117000CCFF37000002520081825A000704E000D1
:10118000040033000603430087834B008B05E9000E
:10119000FAFF3700090578000604BE000203BE000E
:1011A0006011B8005FFF0700E00F5200E08F5A00A7
:1011B0000700350002003C000C08A30004003200C8
:1011C0000601BE0003F0A0000CF0A7000501070017
:1011D0000A85680001F0A1000AF0A70001F0A00054
:1011E000B0FF37000800BE00AEFF3700100220003D
:1011F0000CF0A600C0408800AEFF3700E48240003B
:101200001078A30007003200640240001178A300A8
:101210003400BE001401BE00040032000330A700F9
:10122000000006003500BE001501BE000330A0001E
:10123000000006001800200057002000080453009A
:101240000D003D000600200097FC2F000740E10044
:101250001E00340084827200610260008301D100AC
:101260000281D3008180D3000080D3000804E8000D
:10127000F8FF3A0047002000610460000504740094
:10128000040464000D00320061004000E08048006A
:1012900060014900E081490003B8A5000700320061
:1012A0000603E8006538E10004003A008301D1003C
:1012B0000281D3008180D3000080D300F87F20001A
:1012C0000830E10003003500080378006000B80032
:1012D0006011B8004433DD00F300B20083017300F5
:1012E0000000060005FF27000582610007003200AC
:1012F0000428E10001003200240005000600070078
:1013000001003A004400050004080500020007003F
:10131000F9FF3A00140005006F826100810270003D
:10132000850271008502720000000600801FEB003C
:10133000020007008F87E900000006002800FA007D
:10134000889FBE008A9FBE008C9FBE000EFE970045
:10135000F7FD07006108E1005C0032006200E10077
:101360005A003E00540039006408E1005200320087
:101370006C014700748557003200BE001201BE00A8
:101380003A04BE001A05BE009E029000BE0E9000F8
:101390000D82520017003B000402E80046003A00AC
:1013A000880F5000898F58008A0F59008B8F590081
:1013B0004100340064014700780347003200BE005A
:1013C0001201BE003602BE001603BE0007F0A100E7
:1013D00003F0A60007F0A0000C70A700144107005E
:1013E000E7FD37000000400081804800020149000D
:1013F000838149000C00A00008005000898058003B
:101400000A0159008B81590005003B00080040008B
:10141000898048000A0149008B8149000C00A10025
:101420000402E900EFFF3B00000240008182480017
:1014300002034900838349001B0032000802520066
:1014400089825A000A035B008B835B004200F8002C
:10145000050037000000400081804800020149007B
:10146000838149008D06E9000340A600F9FF37009B
:101470006022B8000D0378006EFF07007803470074
:101480004200F9000800350002003C000C08A300EF
:10149000050032003602BE001603BE0007F0A000B1
:1014A0000C70A700E24007005E02900004F0A70065
:1014B00003F0A200B2FD37002E009000BE009000A5
:1014C0004E019000DE019000ADFD370010022000BB
:1014D0000C70A600C0408800A6FD3700881F780069
:1014E0008A1F78004400F800080F200028028800B6
:1014F0000004900010059000A000900030019000C2
:10150000C00190000300CA000280CA000030CB0076
:101510001A00CD004604C3000100CA004604C00002
:101520001E04C0000605C0000100CD002100980087
:10153000050D7800EABA9700052578004400F90007
:101540004F0578004F04780000000600801F7800E7
:101550004000B0000008EB004F007800801F7800CA
:10156000100090000018EB000018EB000008EB00E2
:101570004F007800000006004400F800020F200031
:1015800022028800910078003000CA003080CA0032
:101590000000CB002080CA000000CB003100CD004D
:1015A0004000CA000000CB000000CB000010CB00C0
:1015B0003100CD001180CC004400F900000006008D
:1015C00007F82700078361000638E10004003A00AD
:1015D000F7072000878361008703710001003A004C
:1015E00003F0A200889FBE008A9FBE008C9FBE00B1
:1015F000470ADE000480A100C71ADE000580A100B2
:10160000070028000785600087856100F70F20002C
:101610000720E1009E0032000728E1009C00320014
:10162000010678000400E000B4003200F707200053
:10163000878060000170A0000500E000C00032005B
:10164000F7072000878161000370A00005065200A3
:101650000F003A000B50E1000B0032000308E100DC
:1016600002003A000200E1007E0032000204500055
:1016700083845800040031000001FD008101FD0059
:101680008402FD008A05FD006044B8002100370097
:101690000520E10005003D000001FD008101FD0085
:1016A0008402FD008A05FD00050652007A60E10013
:1016B000050035000170A1004722DD008480700024
:1016C0008A807000630037006044B800EF02660053
:1016D00007FF2F00070666000500E0000600340043
:1016E000F08312008714DD000511DE00071BDD000A
:1016F000060171008519DE007060E100050035000B
:101700000904780082047800030178008001EB006E
:10171000700656000B50E10003003A000200400042
:10172000838048000400370060041400E0841C003B
:1017300002005800838058000188A3000600320090
:101740008100D1000080D3008984D3000884D300B5
:101750000402E800270037000178A30025003A00C2
:101760000100E000030032008186CF006986560048
:101770000A0037008C0020000000E00004003A005E
:1017800009007800880478000004EB007002520021
:101790008086CF000D0646000C06E9007060E1006F
:1017A0000600350080007800090078008804780081
:1017B0000004EB0070065600700252000C00E000BE
:1017C0000C0034008C08DD00F00316000703DE0077
:1017D000868070000C00DD00074BDE000600700004
:1017E0008C4CDD000743DE00868474000C44DD0071
:1017F0000C0252006120E100200035006101600010
:101800000700280087816400F7FF270087836400B2
:10181000070374000300E000060032008203730037
:10182000040032000000E800E08048000188A300C6
:101830000E003A00F70F20000720E1004A003D00AB
:101840000170A1004722DD00810072008A807000D3
:101850000000BE004F06BE004F05BE004F04BE0094
:10186000000006006000B800FAFF37008100D100D8
:101870000080D3000402E800EEFF37000401780086
:1018800089017400FA0207008A807000F1FF3700B6
:1018900021030700070278000001FD008101FD001F
:1018A0001D03070087027800850372000778A300F4
:1018B000040032000001FD008101FD00300307003B
:1018C000E4FF3700850362000768A30008003200C8
:1018D0000B50E10003003200F0FF2F00F1FF270062
:1018E000DCFF37000001FD008101FD00D9FF37005A
:1018F0000468A300D7FF3200FAFF3700F8FF270083
:10190000888360000B003A000000E00009003A0004
:101910008303640082837300020032000200BE0071
:10192000CCFF37000B50E100CEFF3A000200BE00B2
:10193000C8FF370014002000810064003EFF37001C
:10194000F8FF27008883610004003A000200E000ED
:1019500002003A008C007800BEFF3700150020001E
:101960008301640039FF370001F8270000002000E0
:1019700081007500B7FF3700889FBE008A9FBE00B8
:101980008C9FBE001B0020000202BE00058668007E
:1019900006002800060666004709DE00F20FB200C6
:1019A000820032000243E80080003200C729DE00D6
:1019B000F30FB2007D0032000343E8007B003200E9
:1019C000F107B2000170A000F507B2000570A00099
:1019D000C708DD004903DE00868070004700DD0097
:1019E000C72ADD004923DE00868272004722DD001F
:1019F00003055100040350008583580003003100A3
:101A000000004000818048000A05E9008C1F780032
:101A10008A9FBE00040050008580580004024200E6
:101A200085824A0000004000818048000005EB00EC
:101A30000004BE006033B8000406BE000D48E1009B
:101A400056003100110009004DCCD8000C01B8003F
:101A50000D02B8008481410060824A0082835300F5
:101A600003045C0084845C0060055D000A00E00003
:101A700025003A00800578000D40E1004900310062
:101A80008800780007007800110009004D88D80010
:101A90000C01B8000D02B8008481410060824A0048
:101AA0006003110083835B0004045C00E0845C003D
:101AB0000900E00021003A004F01BE000300E000F1
:101AC0002B003200E3016000070673008C81710077
:101AD00001003200640070004200DE004E5EDD0056
:101AE0000C007000C258DE0001E0A000AD0207004B
:101AF000CF017800818071004F06BE004F05BE0007
:101B00004F04BE00000006008C8343000D044C000F
:101B1000E0844C0060054D000000E9000A00E00090
:101B2000D4FF32008C8343000D044C00E0844C0051
:101B300060054D000000E900CEFF37000C034300B4
:101B40008D834B0060044C00E0844C000000E900F1
:101B50000900E000D8FF32000C0343008D834B00E6
:101B600060044C00E0844C000000E900D2FF370024
:101B70004200DE004E5EDD000C007000C258DE0048
:101B800001E0A000CF0178000300E000DAFF32009E
:101B900060001000E0801800D7FF3700F0FF2F0032
:101BA000AAFF3700F0FF2F00B9FF37000404BE0082
:101BB00059020700870678000004FD008104FD003B
:101BC00055020700078366000678A3000300320071
:101BD0000960A7000800BE002C0037000D78A300A4
:101BE000020032000800BE00280037000778A3007A
:101BF00026003A0001F0A10009F0A1000668A30048
:101C000003003200F1FF2700F0FF2F00BAFF37007A
:101C10000D68A300030032000800BE008C80700035
:101C2000B5FF37000768A30007003A000648A30085
:101C300003003200F1FF2700F0FF2F00AEFF370056
:101C40000D48A300030032006000B8008C807000D3
:101C5000A9FF37000748A3000400320001F827005D
:101C6000000020008C807000A3FF3700A002070056
:101C70000004FD008104FD00020578009C020700BD
:101C80000802BE008A01780059FF37000160A000F9
:101C900012022000C240880097FF37000100E000D8
:101CA000120032000500E00010003200889FBE00E4
:101CB0008A9FBE008C9FBE000006EB0001F8A300C7
:101CC0000300320060001000E08018000CF0A0005B
:101CD00005F8A3000300320060021200E0821A003F
:101CE0000CF0A2008005EB0041FF37006000B80057
:101CF0000200050003836800070028000703630053
:101D0000470ADE000480A100C71ADE000580A1009A
:101D1000F70F20000720E100420032000728E10011
:101D200040003200889FBE008A9FBE008C1F780052
:101D3000F107B200F307B2000400E00064003200D3
:101D40000170A0000500E000680032000370A000F0
:101D500085054200EB07B1000204B8000302B80099
:101D60008484440060854A00020AB80084844400E8
:101D70000A854A00030AB800040545000400330040
:101D80000804D0008984D2000A85D2008B05E900BE
:101D90006158E1003D00350002102000090161009A
:101DA0000308200089816100F70720008783640011
:101DB00008867300C84CDE00C853DD0087847400B9
:101DC0004855DE000300E000060032008203760082
:101DD000040032008904E80060054D000A88A30071
:101DE0000C003A00F70F20000758E10044003D00C6
:101DF0000A70A100C75DDD000A8575008A007300C6
:101E0000090078004F0678004F05BE004F04BE0061
:101E1000000006000A05D1008984D3008B05E80084
:101E2000F0FF3700881F780006047800BA01070029
:101E3000070278000001FD008101FD00B6010700E6
:101E400087027800850372000778A300050032003E
:101E50000001FD008101FD00C90107004F04780069
:101E600000000600850372000748A300030032004B
:101E7000F0FF2F00F1FF2700F8FF370000002000DF
:101E800001F8270088807000F4FF3700880178008F
:101E90004848DD00808171004848DE00C850DD0000
:101EA00001007000C850DE00060478000B017800C5
:101EB0006F01070088807000D2FF37000500E00046
:101EC00005003200170020003C0207009DFF37008C
:101ED00081037000F9FF3A00860078004F06780011
:101EE0004F05BE004F04BE000000050083037100D3
:101EF000F9FF3200270020003002070094FF37006E
:101F000001F8270086807000F4FF370001F8A30075
:101F10001D003A004709DE00F40F20000410E10024
:101F2000260032000200E0002C003200F107B2006F
:101F3000C708DD004902DE00848070004700DD0034
:101F400001E0A000F207B100DA020700F207B000DA
:101F500004042000840160004700DE00490ADD001F
:101F600004007000C708DE000300E0000200320039
:101F700061004000E0804800F107B2004711DD0039
:101F80008280700000000600F4FF270004826000D9
:101F90008002720001003A000000060006F82700E7
:101FA0000620E100120035008102630006826A000B
:101FB000040270000E0032000600370004F827000B
:101FC0000482680003003A000400200000026A0056
:101FD0000B0032000160A0000000060000827000CB
:101FE00001003A0000000600C1010700D6FF3700DB
:101FF00012022000C2408800F0FF2F00F1FF2700EE
:1020000000000600889FBE003400F8000300200096
:10201000A3018800030028008384600001F0A10070
:10202000B2FD200093F42300020150008381580088
:102030000C00310002002000039823000201500030
:102040008381580003003900A90107003900070007
:1020500054010700898068003400F9004F04BE0075
:10206000000006008A9FBE008C9FBE000200200078
:102070000398240000015100818159001E0039009D
:102080009B010700F60207000005EB000100E000DD
:1020900003003D0060001000E08018000A002800E6
:1020A000630362006333B80006600100210007008B
:1020B00000000000080037006D0007000005EB007D
:1020C000050037001B0007000AF0A20002003700DD
:1020D000670007000A0028003201070089806800B5
:1020E0008A8068004F06BE004F05BE003400F9002C
:1020F0004F04BE0000000600070107000778A30098
:10210000050032000160A0008980700012022000EA
:10211000C2408800F3FF37000768A30003003200C5
:10212000F0FF2F00F1FF2700F8FF37006000B80034
:10213000F6FF37000100E000120032006F0341009B
:1021400010003500809FBE00821F78000002BE0094
:1021500082017800080307006403410003003D008A
:1021600043002000C4DB2900020037005300200098
:1021700084DB29002B030700CF0178004F02BE004B
:10218000FD02070000000600889FBE003400F80032
:1021900003002000A301880003002800838460005E
:1021A00001F0A100B2FD200093F4230002015000D1
:1021B00083815800100031000200200003982300A2
:1021C00002015000838158000600390048010700D1
:1021D00027000700F30007003400F9004F04BE0099
:1021E0000000060001F82300000020003400F90080
:1021F0004F04BE00000006008A9FBE008C9FBE00F8
:102200000200200003982400000151008181590040
:10221000B9FF390036010700910207000005EB0005
:102220000100E00003003D0060001000E0801800A5
:102230000A002800630362006333B8008004EB00E7
:10224000066001000A0007000005EB00A2FF37004E
:10225000B8FF07000AF0A2009FFF37000400070044
:102260000A0028009CFF3700B2FF07009AFF3700E2
:102270000100E0000E0032006F0341000C00350049
:102280000002BE0082017800BB0207006403410027
:1022900003003D004300200004DD29000200370058
:1022A00053002000C4DC2900DE0207000000060005
:1022B000000020000100240002000500020250007E
:1022C000838258006100390003037100620032000C
:1022D00005037200590032000300E000550033008E
:1022E00017003A000100E0004B0032000208E10054
:1022F00006003100110009004288D8000101780071
:102300008001EB008000EB00000006006110E1009E
:10231000550032000002BE00110009008280D80082
:102320008002780004007800110009004288D8007B
:10233000010178008001EB008500780000000600B4
:10234000889FBE008A9FBE008C9FBE000386CF0080
:102350000C06E9008C1F78008C19DD00F0021600D5
:102360000512DE00848171000C11DD000003BE0047
:102370008004EB00053CDE008C3BDD000532DE0016
:10238000848373000C33DD00070078008800780038
:10239000110009004388D8000202B8000306B80003
:1023A0008C82420060854E008005EB0004025300E1
:1023B00085825B000A055C008B855C000B003300A6
:1023C0008000EB004F0678000C21DE00700516003F
:1023D0000A2DDD000A0171008C29DE004F06BE00C7
:1023E0004F05BE004F04BE0000000600020242007E
:1023F00083824A0060054D00E0854D000000E90041
:102400000B00E000EEFF3D000202420083824A0022
:102410000000E900EAFF37000000E000120032008F
:10242000110009000280D800010178008000EB0053
:10243000000006000401BE00010037006011B80072
:10244000100020008000EB00000006000001BE002C
:102450006000B800000006000001BE00F0FF2F0081
:10246000F1FF2F00000006006011B8000000060018
:102470000100E00026003200610111007810E10047
:1024800023003C006022B8007010E1000400350019
:1024900080027800010078008000EB00700151009C
:1024A0000200E0000900340070031100062ADD007C
:1024B000822ADE008603DD00878272000200DE00D1
:1024C000860BDD00070070008208DE008481710049
:1024D000F4FF270004826200848171000400280058
:1024E000848262006102600005F0A6000000060020
:1024F00004827100070032000000E800E08048001C
:10250000000006000002BE006000B800EFFF3700C8
:102510006000B800000006002700200001F0A700BE
:1025200017002000470BDE00F60FB2000400320057
:102530000643E8000A0032004702B300000006002C
:1025400001037800F607B2000603700002003A00AB
:102550000703B300000006008702B3000000060076
:1025600001037800F607B200060370000200320093
:102570000770A000000006000760A0000000060031
:102580000478A300040032000578A30003003200A1
:102590000168A30001003A000200BE000160A00033
:1025A0000000060081017000270032008002EB006D
:1025B00001F8A3000300320060001000E080180062
:1025C00015002000F4072000020242002000340021
:1025D000F703200087036000060420000003630067
:1025E00002082000000161004700DE00C909DD008B
:1025F00000807100C708DE000600E000080032001D
:1026000087037100060032001000B0000180B000A6
:102610000188A30002003200C108DE000402E800C5
:10262000F107B200F30F20000320E10003003D009A
:102630004722DD00810072002900370001F82700E1
:102640000000EB00260037006000B8000000060024
:10265000680212007F20E100020034006000B80030
:102660001F0037006011B8007020E1000400350041
:1026700080017800010078008000EB0070025200B9
:102680000400E00009003400F00312000719DD0027
:102690008419DE000703DD00868171000400DE007E
:1026A000070BDD00060070008408DE00F7FF27003E
:1026B000838363008703710006002800030363001F
:1026C000070032000700E00003003A0061016000EB
:1026D00002817300020032001000B0000180B000DF
:1026E0000500A6000000060001F0A00000000600A2
:1026F0004F0ADE004709DE00F107B200F20FB20018
:102700000B003200F207B1000170A000C708DD0025
:10271000C901DE00838070004700DD000400A600D0
:102720000000060060001000E080180000000600B5
:10273000810F700001003A00000006008182CF0086
:102740000500E00010003E008082CF00EE824200D3
:102750007028E1000400390007003E008000780086
:102760000000EB000E003700708312008600DE00D0
:102770000500DD000A003700708352008600DD008E
:102780000000EB0006003700E28252008508DD0001
:10279000708312000603DE00868070000500DD00F5
:1027A0007507B0000501EA000400A600000006005D
:1027B00060001000E080180000000600889FBE0046
:1027C0000004EB006138E10016003A000100E0006F
:1027D00008003A00C800DE004800DD008800200044
:1027E0000100E00003003A00C800DE004800DD0000
:1027F000680444008184CF00E9845400060034005A
:102800008908DD00F08314008703DE0087807000F4
:102810000900DD0009044400610214004F04BE00F9
:10282000000006000300E00008003A00C811DE00C6
:102830004811DD00880020000300E00003003A009A
:10284000C811DE004811DD00680444008384CF0015
:10285000E9845400060034008919DD00F083140077
:102860008713DE00878171000911DD00090444002F
:10287000E1021400E9FF3700889FBE008A9FBE0076
:102880008C9FBE003400F80006002000A6018800DE
:10289000060028008686600001F0A10006002000E6
:1028A00007E0230006035000878358001200310020
:1028B0000600200007982300060350008783580075
:1028C0005C0039008AFF07000005BE008204780022
:1028D0000002BE00820178002701070043002000AB
:1028E000C4CD29005D0107000A02BE0089017800FD
:1028F000210107004E0037000600200007102400C9
:10290000060350008783580038003100060020007D
:1029100007FD230006035000878358000B00310099
:1029200073FF07000005BE008204780062014100C9
:102930008D01070000067800BC010700620151000C
:10294000809FBE00821F78000800370068FF0700E4
:102950000005BE0082047800830107006506400080
:10296000B2010700809FBE00821F78000A02BE00ED
:1029700089017800070024000600200008002000DC
:10298000D90107000005FD008105FD008204FD005E
:10299000CF0178004F02BE00690207000A02BE00A4
:1029A00089017800BDFC07000104780008F8A30045
:1029B0000200320060001000E08018002D000700C7
:1029C00008F8A3000200320060001000E080180048
:1029D000C6CE29006665B800060345003602BE0073
:1029E0009601780058020700110037000600200009
:1029F00007C82400060350008783580013003100E5
:102A00003BFF07000002BE008201780001002400A5
:102A10000000200002002000A0FC070015000700B5
:102A20007548260014D52E0003002000410207003F
:102A3000DCFE07008D8070003400F9004F06BE00F8
:102A40004F05BE004F04BE0000000600B2FE0700A6
:102A50000778A30003003A00B0FD200091FC23009A
:102A6000F4FF37000160A00016022000C640880075
:102A7000F0FF37000100E0000D003200EF034100DD
:102A80000B003500809FBE00821F78000002BE0050
:102A900082017800B800070043002000C4CD29005F
:102AA000EE000700CF0178004F02BE00B200070021
:102AB000000006008103700068003200889FBE009D
:102AC0008A9FBE008C9FBE003400F80008002000E2
:102AD000A80188000208A300030032000000D00013
:102AE0008180D2000201E900810178008002780033
:102AF0000002EB00821F78004A1CDE000801B100D2
:102B000089D8290069417C000281FB000214B800C9
:102B10004644DD000340E100010036000201E90007
:102B20004111DD001200B3000214B8004444DD007E
:102B30000340E100010036000201E9004111DD001F
:102B40001200B3000214B8004244DD000340E1006B
:102B5000010036000201E9004111DD001200B3005E
:102B60000214B8000340E100010036000201E90050
:102B70000214B800088651004763DD00492CDE00CE
:102B800008037300820478004834DE000940E10045
:102B90002E003100110009000983D8004811DD0022
:102BA000000171000214B8000006EB0084067800F2
:102BB0000885520089855900040031000201E900AE
:102BC0000214B800088552008985590082047800F3
:102BD0000B04D1008A83D3000D83D3000938E100B0
:102BE0001C0031001100090049BBD8008002EB0035
:102BF0000003B8000204B8000804440089844C00B3
:102C0000E0824A008703440060824C00E0814A0071
:102C10000603560087835E0004025D0083815D0029
:102C2000010031000000E9008200D1000080D300E3
:102C30004F0178004191DE003400F9004F06BE00DC
:102C40004F05BE004F04BE0000000600F00F20003C
:102C5000D2FF3700F0FF2F00E4FF3700020005002D
:102C6000889FBE008A9FBE008C9FBE000006BE00EB
:102C700082057800741B2C00C5172500F3FF2F0078
:102C80003D000700B8000700809FBE008101700072
:102C900036003200E7015000608258000D0031001C
:102CA0000000E90009D429006C00B8008904400044
:102CB0000C00BE000B0178003902BE00B90178009B
:102CC0009F0107003902BE00B90178009C0107008E
:102CD00021003700D500070014D52E0075482600C6
:102CE000030020000C03BE000B0478000006BE00A9
:102CF00082057800F7000700D3FF2F00838145008D
:102D00000218E100140034000003BE000204780041
:102D10000C00BE000B01780094462800152D2400FD
:102D2000E3FD2F00EB000700E3FD2F00838145004A
:102D30000218E100080034000003BE00020478001D
:102D40000C00BE000B017800B4282600654C24005E
:102D5000F3FB2F00DF0007004F02BE004F06BE004E
:102D60004F05BE004F04BE00000006000C00BE0070
:102D70000B017800F8FF3700889FBE008A9FBE00D5
:102D80000004BE000405BE00030141000201E8008A
:102D90008000EB000A42B8000B43B8008682420074
:102DA00060804B000A4BB800868242000700480052
:102DB000E08048000B4BB8000600400087804800C8
:102DC0000103700002003A000001EB00120037001E
:102DD0000900E00002003D000A0050008B8058000E
:102DE0000B00E00002003D00080050008980580000
:102DF0008582420000004800818048008101DF0098
:102E00000300E00004003200858242000000480018
:102E1000818048000201E9004F05BE004F04BE005A
:102E200000000600E10241000200350091010700A8
:102E300000000600E202410002003500B301070075
:102E400000000600E302410002003500D201070045
:102E50000000060001000700000006006218E10003
:102E60003B003500889FBE008A9FBE008C9FBE003D
:102E70008301E9000004BE000205BE0004067800DC
:102E8000620545000A05EA003C00BE007050E10002
:102E9000170035000D0032007F50E10001003400C2
:102EA000FA012000F00655000801BE00DF0107000E
:102EB0000D99DE00CF99DE003C004100BC80490046
:102EC0008B05E900F8FF3C00140037000801BE0044
:102ED000D601070003017800CF99DE003C004100D5
:102EE000BC8049008B05E900F8FF3C000B0037006F
:102EF000F00615000801BE00CC0107000A11DE0033
:102F00008D1ADD00050171008A99DE003C00410048
:102F1000BC8049008B05E900F6FF3C000103DF009F
:102F20000605EA00050034008A08DD00700215007D
:102F30008402DE00858070000A00DD000601780052
:102F40004F06BE004F05BE004F04BE000000060045
:102F50000300E00002003A006000B8000200050033
:102F60003400BE00020005000100E0002100320034
:102F70008201E8002B0035007E0211001E003400A3
:102F80006011B8007020E100040035008001780075
:102F900001007800CF88DE00700252000400E000DB
:102FA0000700320003017800700312008601DD0083
:102FB0000400DE00860BDD00070070008488DE0060
:102FC000E10260000600280003036300F7FF27000A
:102FD00083836300828373000600E00005003200F3
:102FE000078172000200E000020032006100400030
:102FF000E0804800000006007E10E10001003A0079
:10300000000006000100E00003003500F1FF27008A
:10301000F0FF2F0000000600010028000000200043
:10302000000006006000B800000006000003EB008E
:103030008101DF008301EA006F18E1000F00320018
:103040000300E000060032008308DD0070821100FA
:103050008402DE00858070000300DD00030343006E
:103060000100E00014003200040028000408E10020
:10307000130032007E011300000006008100D10021
:103080008080D3004F00DD00F60020008101DF00CA
:103090008301EA006F18E100E9FF3A008100D100E6
:1030A0008080D3000000EB00E60120008101DF00FA
:1030B0008301EA00E2FF37006000B800020005006B
:1030C0000000E000EBFF3A0001002C000603E900DD
:1030D000E8FF370060001000E080180002003700B1
:1030E00060031300E0831B00889FBE008A9FBE0020
:1030F0008C9FBE00830441000405B800050EB80093
:103100000501B8008285450003064E00E0864E00AA
:103110000409B8008285450003064E00E0864E0093
:103120000100E00002003D000406560085865E00B6
:103130000500E00002003D000006560081865E00AA
:103140000D00E000740032000700E000750032005E
:103150006022B8008783D1000683D3008582D30024
:10316000090054000000E9001B003C003B00350052
:103170000804E8000A0042008B804A000C014B0062
:103180008D814B0046010700040454000300E00059
:103190000E003200090028000918E1000600320084
:1031A0000200BE00080178004F06BE004F05BE00B9
:1031B0004F04BE00000006000200E000F8FF3A00E5
:1031C00003002C000804E800F5FF37006000B80099
:1031D0000001EB00F4FF37000804E8007E00E10086
:1031E00001003400E0012000CFECDE00EF006000C1
:1031F0000100E0000C003200F08110000155DE00FB
:103200000359DD0002057500815DDE000361DD000C
:10321000828575000166DE000369DD000206760026
:1032200081EEDE00010050004400DE006501B800C0
:10323000026001000A0042008B804A000C014B0032
:103240008D814B00CFFF37000B0042008C804A007D
:103250000D014B0089814B00CAFF37006284440096
:103260000000EA00030420000300E1000100340034
:1032700000042000CFBCDE00EF0060000A00320036
:10328000F0811000032ADD00812ADE000331DD0019
:10329000828272000133DE000339DD000203730015
:1032A00081BBDE00010050004400DE006501B80073
:1032B000026001000A0042008B804A000C014B00B2
:1032C0008D814B00AFFF37000A8042008B004B001E
:1032D0000C814B008D814C00AAFF37000A0043008F
:1032E0008B804B000C814C008D814C00A5FF37007A
:1032F0000A8043008B804C000C814C008D814C0077
:10330000A0FF37000A8044008B804C000C814C00E9
:103310008D814C009BFF37000600BE00080178003D
:10332000A1FF37000C01BE000A00BE006284440009
:1033300094FF370060001000E080180002003700A2
:1033400060021200E0821A000100E0003F0032003B
:103350000500E00039003200889FBE008A9FBE0051
:10336000820378008304510004003D000002FD0048
:103370008102FD008904EA008303780001017800DE
:10338000800078000000EB000503780084027800DC
:103390000002EB0006056900070035000281D1003C
:1033A0008180D3000080D3000683D1008582D300C2
:1033B0000482D3008703E8007048E100060035006E
:1033C0007F48E10029003C00050278008602780071
:1033D0004FB3DE00F08454000900E0000800320022
:1033E0000922DE00708514008A2DDD000B027200B8
:1033F000892ADE008A35DD008B82720009B3DE0087
:10340000040040008580480006014900DE000700F6
:10341000838353000200E000090032000B00280003
:103420000B10E1000C0032000100780082007800EF
:10343000070178004F05BE004F04BE0000000600E3
:103440006000B8000001EB00FAFF37000400BE0086
:1034500003017800000006000100E000F2FF3A00DE
:1034600002002C008703E800EFFF3700F90120007D
:10347000D5FF37006218E1001E003500889FBE00AE
:103480008A9FBE008C9FBE008301E9000004BE003D
:103490000205BE00040678003C00BE000801BE0024
:1034A000620007008100D0000281D2008381D20037
:1034B0003C004100BC8049008B05E900F7FF3C005F
:1034C0000103DF008606EA00050034008D08DD00F8
:1034D000708216008402DE00858070000D00DD0021
:1034E000060178004F06BE004F05BE004F04BE0027
:1034F000000006000300E00002003A006000B8008F
:10350000020005003400BE00020005006218E10060
:103510001B003500889FBE008A9FBE008C9FBE00A6
:103520008301E9000004BE000205BE000406780025
:103530003C00BE000801BE003C0007003C0041000A
:10354000BC8049008B05E900FAFF3C000103DF0065
:103550008606EA00050034008D08DD007082160042
:103560008402DE00858070000D00DD000601780019
:103570004F06BE004F05BE004F04BE00000006000F
:103580000300E00002003A006000B80002000500FD
:103590003400BE00020005006218E1001D00350085
:1035A000889FBE008A9FBE008C9FBE008301E900F9
:1035B0000004BE000205BE00040678003C00BE0008
:1035C0000801BE00190007008381D1000281D300E9
:1035D0003C004100BC8049008B05E900F8FF3C003D
:1035E0000103DF008606EA00050034008D08DD00D7
:1035F000708216008402DE00858070000D00DD0000
:10360000060178004F06BE004F05BE004F04BE0005
:10361000000006000300E00002003A006000B8006D
:10362000020005003400BE0002000500889FBE00B5
:103630008A9FBE008C1F78000002BE000203BE00FD
:103640000620B800062DB8008A80400060814D0039
:103650000724B800072DB8008A84440060864D0016
:103660008100440002814C00E0014E000700E000B0
:10367000080035000500E00002003D000601510091
:10368000878159004F0678004F05BE004F04BE00E9
:10369000000006000401510085815900F5FF370044
:1036A0000002EB008302DF008502EA006F28E100E0
:1036B00023003A008301D1008281D3000181D3002D
:1036C0008080D3004F00DD00F40020008302DF0083
:1036D0008502EA006F28E10019003A008301D10059
:1036E0008281D3000181D3008080D3000000EB00F1
:1036F000E40120008302DF008502EA006F28E10078
:103700000F003A008301D1008281D3000181D300F0
:103710008000EB00D40220008302DF008502EA0073
:103720006F28E10006003A008301D1008281D300B6
:103730000001EB00C40320008302DF008502EA00E1
:103740000500E0000C003200708312008519DD00D6
:103750008613DE00878171000511DD00860BDE0017
:10376000070171008508DD008603DE008780700098
:103770000500DD00050242000300E0000100320008
:1037800000000600040005008001EB000202DF00DB
:103790000402EA006F20E10010003A000201D100AB
:1037A0000181D3008080D3004F00DD00F3002000B2
:1037B0000202DF000402EA006F20E10007003A0085
:1037C0000201D1000181D3008080D3000000EB0012
:1037D000E30120000202DF000402EA000400E0002E
:1037E00009003200F00212000411DD00050BDE00BA
:1037F000060171008408DD000503DE00868070008C
:103800000400DD00848141000200E000010032007C
:10381000000006000300050061416100A31C2000B8
:10382000934178000304A10082C171008001FD0072
:10383000CAE1B7008001FD0000004000421D2000E9
:103840000130790000000600200E8800310E88004B
:10385000430E8800540E8800020E88000000060007
:10386000600E8800000006000021EF0011088800AB
:1038700020088800000006008B20A9008BE0A9002A
:10388000674160004411DD00010C20009140780088
:10389000F3C8B30083C0600082C070008000FD00E8
:1038A000C0E0B7008000FD0001C7B3000141600027
:1038B000310C20009140780083C0600082C070000D
:1038C0008000FD00C3E0B7008000FD0068016000DB
:1038D0004311DE0002414100B1092000914078000F
:1038E0000114A10082C070008000FD009BE0B700C1
:1038F0008000FD000008B2004700DE004700DD0048
:10390000B1092000914078000174A10080C07000CE
:10391000010078009BE0B700000006008460A90069
:10392000E7416000C419DD00510A20009140780091
:10393000F2C8B30082C0600083C070008000FD0048
:10394000A5E0B7008000FD00680060004300DE00D5
:103950004300DD0041092000914078000134A100BE
:1039600080C070000100780094E0B70000000600FD
:1039700020C2BF0066406000E64F500002003A00DF
:10398000301180000000060030118000F00FB200FE
:103990000000060030C2BF0066406000E64F5000E5
:1039A00002003A00B011800000000600B011800053
:1039B000F00FB200000006001C6C00000CF70000C5
:1039C000476B0000CC0C0000DBAA0000AAEA000054
:1039D00000000000004000000000000000000000A7
:1039E00000000000E4D700006D7D0000FDFF000036
:1039F000159C0000B1760000FEFF00008C3E000028
:103A00005E520000FFFF000051ED000087640000DF
:103A1000FFFF00005EF10000B1720000FFFF000038
:103A20004A2F0000CC7D0000FFFF00004B86000005
:103A3000DB46000000000000AD5D0000F04F00001C
:103A40000000000054320000DA54000000000000C2
:103A500054CC0000E5570000000000008E2100005B
:103A6000F659000000000000EE150000735B000036
:103A700000000000AA7E0000925C00000000000030
:103A800051ED000087640000000000006984000020
:103A9000D1420000DEFF000051ED0000876400000D
:103AA0000100000069840000D1420000DFFF000037
:103AB000FCF10000654B00000200000069A400005A
:103AC00043660000E3FF000051ED00008764000042
:103AD0000200000069840000D1420000E0FF000005
:103AE000A5E80000A97D0000020000006079000048
:103AF000E1540000E2FF0000FCF10000654B000013
:103B00000300000069A4000043660000E4FF000019
:103B10001010000011110000121200001313000019
:103B200013140000141500001515000016160000EF
:103B300016170000171700001818000018190000C9
:103B4000191900001A1A00001A1B00001B1B0000A4
:103B50001B1C00001C1C00001D1D00001D1D000082
:103B60001E1E00001E1E00001F1F00001F1F000061
:103B7000690B000000000000DDBF0000FCFF00003A
:103B800085880000880000005555000055F50000AC
:103B900000000000004000006E6600000000000011
:103BA000503F0000E9FF00008AAA0000AA020000BE
:103BB0000100000000E000000000000000400000E4
:103BC0002D6D000061720000792000006861000026
:103BD00064200000612000006C6900007474000023
:103BE0006C650000206C0000616D0000622D00001B
:103BF00000000000A0250000260000008036000024
:103C0000400100000200000064735000696433004A
:103C1000332032002E322E003320470075696F00AA
:103C20007474200030372D00313000000000000097
:103C30000000000000000000000064000000000020
:103C40000000000000000000000000000000000074
:103C50000000000000000000000000000000000064
:103C60000000000000000000000000000000000054
:103C70000000000000000000000080003F00000085
:103C80000000000000000000000000000000000034
:103C90000000000000000000000000000000000024
:103CA00000000000000000000000000000102700DD
:103CB0001027000060EA45000060EA00C5006000CF
:103CC000EA45000060EAC5000000000000000000B6
:103CD00000000000000000000000000000000000E4
:103CE00000000000000000000000000000000000D4
:103CF000000000000006000064000000000000005A
:103D00000400000000000000AC0D0500002C0100C4
:103D10000000AC000D0400000000C40009AC0D0060
:103D200005002C0001C40900AC0D040000000000D7
:103D3000C4090000000500002C01C40009000000B7
:103D4000040000000000000000000500002C01003D
:103D5000000000000006000050000000000000000D
:103D60000300000000000000000000000000000050
:103D70000000000000000000000000000000000043
:103D80000000000000000000000000000000000033
:103D90000000000000000000000000000000000023
:103DA00000100000100010000000000000000000E3
:103DB000000000001A080000842C00000000000031
:103DC0000008000018000000000000005A47000032
:103DD0001800000000000000004600000001000084
:103DE0000000000072470000020000000000000018
:103DF000A04700001C0000000200000000000000BE
:103E000000000000000000000000000000000000B2
:103E1000000000000000000000640000000000003E
:103E2000000000009E340000E201000000000000DD
:103E3000004700005A00000000000000804700001A
:103E40002000000000000000180800000200000030
:103E500000000000744700000200000002000000A3
:103E600000000000000000000000FA008020A9000F
:103E7000FFFF37000000FA008060A900FFFF370055
:103E80000000FA008040A900FFFF37000000FA00A0
:103E90008080A900FFFF37000000FA0080A0A90081
:103EA000FFFF37000000FA008020A900FFFF370065
:103EB0000000FA008060A900FFFF37000000FA0050
:103EC0008040A900FFFF37000000FA008080A900B1
:103ED000FFFF37000000FA0080A0A900FFFF3700B5
:103EE0001080BA00000006001000BA0000000600B2
:103EF000801F78000500FC0050052000303B880042
:103F0000A00A2000303B880061E7A8000000000004
:103F10000000000061E7AF00FEFF37004F007800AF
:103F2000000006008088BB000000060080C8BB00BF
:103F3000000006008008BB00000006008048BB00AF
:103F400000000600CF80DE00C20302000000000077
:103F50000200200003702400BC0C020000000000DE
:103F6000000006000000FE00FFFFFF00FFFFFF0053
:103F7000FFFFFF00FFFFFF00FFFFFF00FFFFFF004D
:103F8000FFFFFF00FFFFFF00FFFFFF00FFFFFF003D
:103F9000FFFFFF00FFFFFF00FFFFFF00FFFFFF002D
:103FA000FFFFFF00FFFFFF00FFFFFF00FFFFFF001D
:103FB000FFFFFF00FFFFFF00FFFFFF00FFFFFF000D
:103FC000FFFFFF00FFFFFF00FFFFFF00FFFFFF00FD
:103FD000FFFFFF00FFFFFF00FFFFFF00FFFFFF00ED
:103FE000FFFFFF00FFFFFF00FFFFFF00FFFFFF00DD
:103FF000FFFFFF00FFFFFF00FFFFFF00FFFFFF00CD
:104000000000F300FFFFFF00FFFFFF00FFFFFF00C6
:10401000FFFFFF00FFFFFF00FFFFFF00FFFFFF00AC
:10402000FFFFFF00FFFFFF00FFFFFF00FFFFFF009C
:10403000FFFFFF00FFFFFF00FFFFFF00FFFFFF008C
:10404000FFFFFF00FFFFFF00FFFFFF00FFFFFF007C
:106800000000F300FFFFFF00FFFFFF00FFFFFF009E
:10681000FFFFFF00FFFFFF00FFFFFF00FFFFFF0084
:10682000FFFFFF00FFFFFF00FFFFFF00FFFFFF0074
:10683000FFFFFF00FFFFFF00FFFFFF00FFFFFF0064
:10684000FFFFFF00FFFFFF00FFFFFF00FFFFFF0054
:109000000000FA0031280700C482A800CC82A90021
:109010006000B80070418800814188006000B8009D
:1090200090418800A1418800204180000070A1008B
:1090300020418800204180000080A100204188005C
:10904000004180000060A1000041880000418000D4
:109050000010A100004188000000EB0040438800A0
:109060000000EB00904388000000200001F823007E
:1090700050A4890061A489008040EB00E0482300EF
:10908000014878008040EB00F04823000148780058
:10909000204180000020A100204188002041800064
:1090A0000030A10020418800004180000030A10074
:1090B00000418800204180000040A100204188003C
:1090C000E0012000ED140700731E07008040EB0054
:1090D0002077240001487800803E200090A4890079
:1090E000800C2000A0A48900FD13070000140700D5
:1090F0000B1407000000EB00C0A38900C20E07009C
:109100000000EB0040A48900BA0D07000041800078
:1091100000D0A10000418800204180000060A10033
:10912000204188006000B80060B9890071B98900E9
:109130006000B80040B9890051B989000041800041
:1091400000B0A000004188008040EB0000732300C5
:10915000014878000041800000A0A1000041880083
:1091600014170700581707000000EB0020B589000E
:109170008040EB00E07B23000148780018290700BD
:109180000000EB00E0B489000B003700E2B481007E
:10919000E1B4810000682300008040009040780026
:1091A000007024000000410001487800E0B4810014
:1091B0000000E800E0B48900E0B48100F90F50003D
:1091C000F2FF340090012000901E8800C9E3A8003F
:1091D000CBE3A800204180000050A000204188007F
:1091E000307A240090407800407A240010407800C3
:1091F00080CF500001003200F4170700F07A2400FD
:1092000090407800007B24001040780080CF500010
:10921000010032001C190700513D82003006200079
:10922000808F500004003200C13D820030062000D3
:10923000808F500001003A000201070040822000A8
:1092400010407800614060000004E000010032003E
:10925000BF13070040822000104078006240600089
:109260000004E000010032001D14070040822000CD
:1092700010407800644060000004E000010032000B
:109280001B10070000418000680060000000E00043
:1092900001003200680E0700408220001040780074
:1092A000684060000004E000010032005D0D07002E
:1092B00020B581000000E0000400320030B58100DC
:1092C0000000E00001003C008614070040822000FE
:1092D000104078000044B2000004E00001003200B9
:1092E000D20C070000418000014020000100600016
:1092F0000000E00009003200E0A481000000E0006E
:1093000006003C00004180000090A0000041880061
:109310000041800000A0A1000041880000418000C1
:1093200001022000010060000000E0001000320097
:109330000041800001002100010060000000E00009
:109340000A003A0000418000018020000100600016
:109350000000E00005003A000041800001202000EC
:10936000010060000000E00001003200420B070035
:109370004082200010407800704060000004E0004F
:109380000C003200808520001000BE00E00F50006D
:10939000E08F580007003A0080852000B000900060
:1093A00020009000E00F5000E08F580001003A00CC
:1093B00041000700A0A481006101B80000B5810050
:1093C00011B58100800F5100818F590008003A00CB
:1093D000C482A900CC82A80000B5810011B581002B
:1093E00061004000E080480000B5890011B58900A7
:1093F00090A481006101B80000B5810011B5810021
:10940000800F5100818F590005003C00C482A800E4
:10941000CC82A9006000B80000B5890011B58900B0
:1094200040B9810051B9810061004000E0804800EE
:1094300040B9890051B9890062B9810073B98100CE
:109440003001200001002000800F5100818F590061
:109450001700360046B9810057B9810086007800B0
:1094600080BB20000009B8006030B900030278001A
:109470000002420080BB200000B8B9000002420098
:10948000840178000200BE000268290083092000E0
:109490002EDC070080A489006000B80040B9890074
:1094A00051B989006000B80060B9890071B98900BC
:1094B000000000004AFF37000200FA00408220004E
:1094C000104078000042B2000004E0004E0032007C
:1094D000204180000050A10020418800E24080002F
:1094E000E046230090407800005D2300000041002A
:1094F00001487800C0438000000F7800E140800000
:109500001E0078004880DE00004178008180E8007D
:10951000005D23000080400002487800E1408000A8
:109520001E00780000417800E4804000005D2300C8
:109530000080400002487800D0438000000F78008F
:10954000E14080001E0078004880DE000041780085
:10955000E6804000005D2300008040000248780063
:10956000E14080001E00780000417800E880400063
:10957000005D230000804000024878000000EB00FE
:10958000E0B4890015003700E0B48100E501400037
:10959000E4408000E1B48100E04623001040780000
:1095A0000081FB00600920000088B90082004000B3
:1095B000C0872000008040001041780003804100F7
:1095C00084004000005D23000080400002487800D5
:1095D000E0B481000000E800E0B48900E1B481005B
:1095E000A0042000808F5000E7FF3400E24080009C
:1095F0001105200040C2B30078160700204180000A
:109600000040A100204188000080FA000000060010
:109610000400FA00008FBE001E00BE00B0B8890032
:10962000C1B88900B0B88100C1B88100D0A3890059
:10963000E1A3890000472300C4DF07000080FA008F
:1096400000000600D200FA00889FBE008A9FBE007C
:10965000B0FD200091F423005007980061079800A6
:10966000513D820030062000808F500009003A00F2
:10967000707A240090407800E06723000148780069
:109680000000EB00503D8A000000EB00D040880055
:1096900008003700307B240090407800F0672300FA
:1096A000014878000000EB00C03D8A001000200057
:1096B000D0408800F1408000C06723000080400057
:1096C00090407800A0C2B30080CF50000300320069
:1096D0008040EB00E07B230001487800D14080000F
:1096E000C067230000804000104078000080FB002D
:1096F0006101B900D0FD2F00F1FF2F0002014000F1
:109700008381480072A7980003AF9800700520007D
:10971000010020007EA190008EA99000800F5100D2
:10972000818F59004D0A3E007EA090008EA89000C7
:10973000006001005D08370066083700470A3700FF
:10974000460A3700450A3700440A3700430A370003
:10975000D3073700410A3700400A37003F0A370075
:109760003E0A37003D0A37003C0A37003B0A370003
:109770003A0A3700390A3700380A3700370A370003
:10978000360A3700350A3700340A3700330A370003
:10979000320A3700310A3700300A37002F0A370003
:1097A0002E0A37002D0A37002C0A370039003700FF
:1097B0002A0A3700290A3700E6013700270A37004E
:1097C000260A3700250A370025033700230A370009
:1097D00036033700D00337009A05370048063700B4
:1097E0001E0A370044023700AE0237001B0A37005A
:1097F000C5073700F3023700180A3700170A370089
:10980000160A3700150A3700140A3700130A370002
:10981000120A3700110A3700100A37000F0A370002
:109820000E0A37000D0A37000C0A370023013700F3
:109830000A0A3700CD07370043083700EE07370024
:1098400007083700050A3700040A3700030A370003
:10985000020A3700E0043700000A3700FF0937002A
:10986000FE09370059023700FC093700FB093700B1
:10987000FA09370034073700F8093700F7093700CD
:10988000F6093700F5093700F4093700F309370006
:10989000C0073700808520001003BE0086007800D6
:1098A000803E20000009B8006030B9000302780053
:1098B00000024200803E200000B8B90000024200D1
:1098C00084017800411ADD004F10DE0000007200B4
:1098D000CF98DE00C0A4890080852000200390007E
:1098E000B003900086007800803E20000009B80098
:1098F0006030B9000302780000024200803E200080
:1099000000B8B9000002420084017800411ADD006D
:109910004F10DE0000007200CF98DE00D0A4890056
:10992000C1A48100D0A48100008040000080D1004B
:10993000500F98000141800000002200008060006C
:109940000000E0001A00320010B68100500F9800AD
:1099500010B6810060A79800EEA090000100E00022
:1099600003003D006EA190000201EA0062A798008A
:10997000EEA1900043B5890010B6810050A7980071
:109980005EA290000400E00003003D005EA0900095
:109990000000EA0050A79800DEA0900051B58900B1
:1099A000B0B88100C1B8810020B7890031B7890003
:1099B000D24080005E0890004880DE008040780041
:1099C000005D23000000410001487800D140800084
:1099D0005E089000004178008180E800005D23006F
:1099E000008040000248780041B5810050B58100F8
:1099F00000804000400F9800D14080004E08900049
:109A00004880DE0000417800E4804000005D2300D3
:109A10000080400002487800D14080004E0890004D
:109A200000417800E6804000005D23000080400097
:109A300002487800E0B68100F1B681006011B800FC
:109A4000D1DA07000000E00001003D000A00370005
:109A5000E0B68100F1B68100CDDA07006022B800DF
:109A60000600200007FE2300711F0700E7DA070049
:109A700040A7980009003700E0B68100F1B68100E8
:109A8000C3DA07006022B8000600200007FE2300AA
:109A9000051E0700DDDA070040A798004EA19000E0
:109AA000520F9800D14080005E0890004880DE0090
:109AB00000417800E8804000005D23000080400005
:109AC00002487800D14080005E0890000041780094
:109AD000EA804000005D23000080400002487800DA
:109AE00000B7810011B781006011B800A6DA070045
:109AF0000000E00001003D000A00370000B78100CF
:109B000011B78100A2DA07006022B8000600200029
:109B100007FE2300461F0700BCDA070030A79800A5
:109B20000900370000B7810011B7810098DA0700FB
:109B30006022B8000600200007FE2300DA1D07009F
:109B4000B2DA070030A79800BEA19000530F98002A
:109B5000D14080005E0890004880DE00004178001F
:109B6000EC804000005D2300008040000248780047
:109B7000D14080005E08900000417800EE804000F7
:109B8000005D2300008040000248780020B781007B
:109B900031B781007EDA0700644B290035A6210029
:109BA000C65D2A00C7042400EF22070097DA0700E9
:109BB000500F98005E0890000000E0000A00350099
:109BC0005E089000CF80DE00BCDA07006022B8009B
:109BD0000600200007FE2300151F07008BDA070090
:109BE00020A79800090037005E089000CF80DE00B3
:109BF000B2DA07006022B8000600200007FE23004A
:109C0000A91D070081DA070020A798002EA2900066
:109C1000340F9800D14080003E0890004880DE005C
:109C200000417800F0804000005D2300008040008B
:109C300002487800D14080003E0890000041780042
:109C4000F2804000005D2300008040000248780060
:109C5000D1408000F0A381004880DE000041780000
:109C6000F4804000005D230000804000024878003E
:109C7000D1408000F0A3810000417800F6804000D0
:109C8000005D23000080400002487800D140800041
:109C900080A4810000417800F8804000005D23002E
:109CA0000080400002487800D2408000D1002000AF
:109CB00010C4B300C9140700EB08370080852000EA
:109CC0001003BE0086007800803E20000009B80026
:109CD0006030B9000302780000024200803E20009C
:109CE00000B8B9000002420084017800411ADD008A
:109CF0004F10DE0000007200CF98DE00C0A4890083
:109D00008085200020039000B0039000860078003A
:109D1000803E20000009B8006030B90003027800DE
:109D200000024200803E200000B8B900000242005C
:109D300084017800411ADD004F10DE00000072003F
:109D4000CF98DE00D0A489000141800000002200ED
:109D5000008060000000E0001C00320010B68100AE
:109D6000C0A4890010B68100D0A4890010B681007B
:109D700010A798001EA090000000E00003003D0026
:109D80009EA090008100EA0011A798001EA19000FB
:109D900042B5890010B6810000A798008EA19000FE
:109DA0000300E00003003D000EA290000402EA0060
:109DB00004A798000EA0900050B58900B0B88100AB
:109DC000C1B8810020B7890031B78900D240800036
:109DD000C0A481004880DE0080407800005D230040
:109DE0000000410001487800D1408000C0A48100FB
:109DF000004178008180E800005D23000080400081
:109E000002487800D1408000D0A481004880DE0064
:109E100000417800E4804000005D230000804000A5
:109E200002487800D1408000D0A481000041780031
:109E3000E6804000005D230000804000024878007A
:109E4000D140800040B581004880DE0000417800AC
:109E5000E8804000005D2300008040000248780058
:109E6000D140800040B5810000417800EA80400088
:109E7000005D23000080400002487800D14080004F
:109E800050B581004880DE0000417800EC80400041
:109E9000005D23000080400002487800D14080002F
:109EA00050B5810000417800EE804000005D230045
:109EB0000080400002487800D140800020B6810038
:109EC0004880DE0000417800F0804000005D230003
:109ED0000080400002487800D140800020B6810018
:109EE00000417800F2804000005D230000804000C7
:109EF000024878000000EB0020B68900D1408000C5
:109F000030B681004880DE0000417800F4804000D7
:109F1000005D23000080400002487800D1408000AE
:109F200030B6810000417800F6804000005D2300DB
:109F300000804000024878000000EB0030B6890045
:109F4000D2408000C100200010C6B30023140700D7
:109F500045083700D04080006B1707000080FB00E9
:109F6000D14080000000400081004000004B2300F1
:109F700000804000104078000080FB004804DD00B5
:109F8000D0408000601707000080FB00D1408000B7
:109F90000000400081004000004B23000080400092
:109FA000104078000080FB0000004400500F980033
:109FB000E0B68100F1B6810075D90700409F980096
:109FC000519F9800629F9800739F98005E089000D0
:109FD000CF80DE00B9D907000004BE000205BE0034
:109FE000B0B88100C1B8810069D90700B6D90700AF
:109FF0000002BE000203BE000800BE000A01BE004F
:10A00000D92107000002BE000203BE004E98900056
:10A01000DE9890006E999000FE999000041E070053
:10A02000ABD9070000B9890011B9890000B78100D8
:10A0300011B7810056D90700009F9800119F980022
:10A04000229F9800339F98005E089000CF80DE002A
:10A050009AD907000004BE000205BE00B0B8810016
:10A06000C1B881004AD90700C4D907000002BE0068
:10A070000203BE000800BE000A01BE00BA210700AC
:10A080000002BE000203BE000E9890009E98900051
:10A090002E999000BE999000E51D07008CD907000D
:10A0A00020B9890031B989000041800000E0A0009A
:10A0B00000418800004180000050A100004188005C
:10A0C0000141800000002200008060000000E000EC
:10A0D000E507320000B9810011B98100E0B68900BE
:10A0E000F1B6890020B9810031B9810000B789003B
:10A0F00011B78900DC073700D04080000217070045
:10A100000080FB00D1408000000040008100400042
:10A11000004B230000804000104078000080FB00CE
:10A120004804DD00D0408000F71607000080FB00E7
:10A13000D14080000000400081004000004B23001F
:10A1400000804000104078000080FB0000004400C8
:10A15000500F98005E089000CF80DE0057D90700AE
:10A1600014712E00A51F2A0066F42D0017F9230094
:10A170007D21070056D9070025FD0700004180001A
:10A1800000E0A100004188000000200001F8230049
:10A1900050A4890061A48900004180000050A10002
:10A1A0000041880001418000000022000080600022
:10A1B0000000E000AC073200B0B88100C1B88100F7
:10A1C00020B7890031B78900A7073700D040800049
:10A1D000CD1607000080FB00D14080000000400049
:10A1E00081004000004B23000080400010407800B8
:10A1F0000080FB004804DD00D0408000C21607004C
:10A200000080FB00D1408000000040008100400041
:10A21000004B230000804000104078000080FB00CD
:10A2200000004400500F9800B0B88100C1B8810010
:10A23000D7D807000004BE000205BE005E089000EB
:10A24000CF80DE001DD9070014712E00A51F2A0043
:10A2500066F42D0017F92300432107000002BE0019
:10A260000203BE000800BE000A01BE00701D070008
:10A2700017D90700E6FC07000041800000E0A100BC
:10A28000004188000000200001F8230050A489004C
:10A2900061A48900004180000050A10000418800B5
:10A2A00071073700D0408000971607000080FB0040
:10A2B000D14080000000400081004000004B23009E
:10A2C00000804000104078000080FB004804DD0062
:10A2D000D04080008C1607000080FB00D140800039
:10A2E0000000400081004000004B2300008040003F
:10A2F000104078000080FB0000004400CF80DE00AA
:10A3000020D9070000B9890011B98900D040800028
:10A310007D1607000080FB00D14080000000400057
:10A3200081004000004B2300008040001040780076
:10A330000080FB004804DD00D0408000721607005A
:10A340000080FB00D1408000000040008100400000
:10A35000004B230000804000104078000080FB008C
:10A3600000004400CF80DE0006D9070020B9890034
:10A3700031B989000041800000E0A0000041880060
:10A38000004180000050A100004188000141800090
:10A3900000002200008060000000E0003207320070
:10A3A00000B9810011B98100E0B68900F1B68900D9
:10A3B00020B9810031B9810000B7890011B7890047
:10A3C00029073700D04080004F1607000080FB00AF
:10A3D000D14080000000400081004000004B23007D
:10A3E00000804000104078000080FB004804DD0041
:10A3F000D0408000441607000080FB00D140800060
:10A400000000400081004000004B2300008040001D
:10A41000104078000080FB000000440010B6890066
:10A4200011B68100703E2000808F50000200340081
:10A43000703E200010B6890011B6810090C12F0037
:10A44000808F500002003D0090C12F0010B689009F
:10A45000004180000050A100004188000207370041
:10A460000000EB0010B68900004180000050A10000
:10A47000004188000141800000002200008060004F
:10A480000000E000F80632000000EB00F0B58900A3
:10A490000000EB0000B689000000EB0040B5890029
:10A4A0000000EB0050B58900EF0637000000EB001C
:10A4B000700F98000000EB00301798008E003700F6
:10A4C000D0408000101607000080FB00D1408000C3
:10A4D0000000400081004000004B2300008040004D
:10A4E000104078000080FB004804DD00D040800070
:10A4F000051607000080FB00D140800000004000EE
:10A5000081004000004B2300008040001040780094
:10A510000080FB0000004400600F9800EE089000EF
:10A52000F0702200808F500002003600F070220090
:10A53000600F9800FE0890006E08900000804000B8
:10A54000700F98003E1090002200200011000900BA
:10A550000200D80077004000800078006E0890006C
:10A560007B1A07003E109000220020001100090015
:10A570000200D800709798006E089000CF80DE002F
:10A5800080D8070040979800519798006E08900077
:10A590000000E00007003D000200200003782400D6
:10A5A0004E909000DE9090000EDC070040979800DF
:10A5B0005197980002002400C36124004E9090003F
:10A5C000DE909000ECDC07006011B80098D807001E
:10A5D0000000E000010035001F0037006E08900009
:10A5E000CF80DE0067D80700209798003197980049
:10A5F0006E0890000000E00007003D00020020000F
:10A60000037824002E909000BE909000F5DB0700A8
:10A61000209798003197980002002400C36124001D
:10A620002E909000BE909000D3DC07000200200026
:10A6300003702400AFDD0700D5D707006022B80003
:10A640000600200007FE2300171B0700EFD70700B6
:10A65000609798001E0037006E089000CF80DE00E3
:10A6600048D8070000979800119798006E0890004E
:10A670000000E00007003D000200200003782400F5
:10A680000E9090009E909000D6DB070000979800F7
:10A690001197980002002400C36124000E909000DE
:10A6A0009E909000B4DC070002E02F00F36F2400BE
:10A6B00090DD0700B6D707006022B8000600200032
:10A6C00007FE23005A1C0700D0D7070060979800A8
:10A6D0007E9190007E91900082004100A071230045
:10A6E00000804000EE919000030878003E1090003A
:10A6F0000080E800301798003E109000E40F5000F2
:10A700006FFF34003B0807007E089000A101200085
:10A710000F1A0700540637000000EB00700F980076
:10A720000000EB00301798008E003700D04080000A
:10A73000751507000080FB00D1408000000040003C
:10A7400081004000004B2300008040001040780052
:10A750000080FB004804DD00D04080006A1507003F
:10A760000080FB00D14080000000400081004000DC
:10A77000004B230000804000104078000080FB0068
:10A7800000004400600F9800EE089000F070220076
:10A79000808F500002003600F0702200600F980099
:10A7A000FE0890006E08900000804000700F980036
:10A7B0003E10900022002000110009000200D80085
:10A7C00069004000800078006E089000E0190700E2
:10A7D0003E10900022002000110009000200D80065
:10A7E000708F98006E089000CF80DE00E5D70700DC
:10A7F000408F9800518F98006E0890000000E00094
:10A8000007003D0002002000037824004E889000DD
:10A81000DE88900073DB0700408F9800518F98000E
:10A8200002002400C36124004E889000DE8890005E
:10A8300051DC07006011B800FDD707000000E00000
:10A84000010035001F0037006E089000CF80DE0049
:10A85000CCD70700208F9800318F98006E089000A9
:10A860000000E00007003D00020020000378240003
:10A870002E889000BE8890005ADB0700208F980039
:10A88000318F980002002400C36124002E889000BC
:10A89000BE88900038DC070002002000037024000E
:10A8A00014DD07003AD707006022B8000600200038
:10A8B00007FE23007C1A070054D70700608F98001A
:10A8C0001E0037006E089000CF80DE00ADD7070075
:10A8D000008F9800118F98006E0890000000E00033
:10A8E00007003D0002002000037824000E8890003D
:10A8F0009E8890003BDB0700008F9800118F980026
:10A9000002002400C36124000E8890009E889000FD
:10A9100019DC070002E02F00F36F2400F5DC0700CC
:10A920001BD707006022B8000600200007FE2300A6
:10A93000BF1B070035D70700608F98007E8A900004
:10A940007E8A900084004200806E230000804000D8
:10A95000EE889000010878003E1090000080E8002A
:10A96000301798003E109000E40F50006FFF340045
:10A97000DF0D07000000EB00301798008E00370055
:10A98000D0408000E01407000080FB00D140800030
:10A990000000400081004000004B23000080400088
:10A9A000104078000080FB004804DD00D0408000AB
:10A9B000D51407000080FB00D1408000000040005B
:10A9C00081004000004B23000080400010407800D0
:10A9D0000080FB0000004400600F9800EE0890002B
:10A9E000F0702200808F500002003600F0702200CC
:10A9F000600F9800FE0890006E08900000804000F4
:10AA0000700F98003E1090002200200011000900F5
:10AA10000200D8006C004000800078006E089000B2
:10AA20004B1907003E109000220020001100090081
:10AA30000200D800708798006E089000CF80DE007A
